:020000020000FC
:080000000C942A000C94470146
:020034002EC1DB
:1000540000E0F02E402FE02E89E100E801BB929AE7
:1000640000E804BB08E00EBF0FE50DBFA0E4B1E05B
:10007400C0E4D1E0789400E40BBF03E005BF09E6D7
:1000840005BD04E603BD08E90AB906E800BD07E6B4
:1000940009B900E00ABB00EC07B907EE06B906C0CF
:1000A40000E003BD03C0EF2C439500C0EF14D9F763
:1000B400423029F0433029F0443090F7F7CF0C94C4
:1000C400DD0001E00D935991523011F008C0EECFDC
:1000D40004E603BD0E94C0000E943B01E7CF0FEF7E
:1000E40003BD0E946301803009F38A955991DECFE4
:1000F40001E0A01619F001E0D02E089502E0D02E00
:10010400089501E0D016D1F039C0BB24CC2489E194
:1001140059915230E9F35A910895739561E00C9422
:10012400C000739562E00C94C000583C38F55B3411
:1001340028F424C0553510F00C94C000939401E0C9
:100144009016E1F09924662777270E943501DDCFC8
:10015400613009F009C0583C10F45C3360F47395C5
:100164000E942E010C94C0005A3528F073950E9409
:100174002E010C94C0007727662700C00E941D0141
:100184000E947A000E944301713011F3613069F2D8
:10019400623081F25C3308F25E3618F6772701E0AC
:1001A400B01621F001E0D01203C0E8CF0C94830014
:1001B40001E0B02EE3CF0E941D010E9425010E94A0
:1001C4003B01713021F1613071F0623099F05C33A0
:1001D40020F05E3628F4772769CF739561E066CF07
:1001E400739562E063CF583C18F45B3430F45ECF0F
:1001F4000C945800553508F059CF939401E09016AB
:10020400B9F39924662777270E9435014FCF6130CF
:1002140009F008C0583C10F45C3350F473950E9404
:100224002E0144CF5A3520F073950E942E013ECF03
:10023400772766273BCF349BFECF349A54B105B160
:100244000E945801089501E0A01619F001E00D93F1
:10025400089502E00D93089501E0A02E5D9BFCCF6C
:1002640001E00CB90895AA245D9BFDCF0AE00CB906
:1002740008955D9BFECF5CB908955D9BFECF4CB99C
:1002840008955D9BFECFDCB80895F39418950CB1E6
:10029400003319F0013321F0189500E003BD1895DF
:1002A4000AE0E02EF02E04E603BD189532E028ECB7
:1002B40018EC00001A95E9F72A95D1F73A95B9F7A1
:1002C4000895382F303051F025E011E4000000008B
:1002D4001A95E1F72A95C9F73A95B1F716E40AEFAA
:1002E40000000A95E9F71A95D1F7089539E1381B0A
:1002F400303051F02CEF1AEF000000001A95E1F7AE
:0A0304002A95C9F73A95B1F708955C
:00000001FF
