:020000020000FC
:1000000000E004BB0FEF05BB07BB0FEB08BB08E02C
:100010000EBF0FE50DBF00C00E9423000E94160016
:10002000903019F00E942600F7CFF6CF5AEF00006B
:100030005A95E9F70895792F6AEF00006A95E9F774
:100040007A95D1F7089593B39095089546B34F3BB1
:1000500059F0473F71F04B3F89F04D3FA1F04E3FC3
:10006000B9F04F3ED1F0089537EF38BB0E941B0026
:10007000D3CF3BEF38BB0E941B00CECF3DEF38BB48
:100080000E941B00C9CF3EEF38BB0E941B00C4CFAB
:100090003FEE38BB0E941B00BFCF3FEB38BB0E9436
:0400A0001B00BACFB8
:00000001FF
